:10000000CBC10000FAC10000F8C10000F6C1000039
:10001000F4C10000F2C10000F0C10000EEC1000018
:10002000ECC10000EAC10000E8C100000C94731BA1
:10003000E4C10000E2C10000E0C10000DEC1000038
:10004000DCC10000DAC10000D8C10000D6C1000048
:10005000D4C10000D2C10000D0C100000C94081827
:10006000CCC100000C94DC180C94A019C6C100008F
:10007000C4C10000C2C10000C0C10000BEC1000078
:10008000BCC10000BAC10000B8C10000B6C1000088
:100090000C94AE180C946D19B0C10000AEC10000F4
:1000A000ACC10000AAC10000A8C10000A6C10000A8
:1000B000A4C10000A2C10000A0C100009EC10000B8
:1000C0009CC100009AC1000098C100000C948018E7
:1000D0000C943A1992C100000C9452180C94071910
:1000E0008CC10000EF120A13EC12B21232139C13EF
:1000F000661320125A129A122D1248122E142E1420
:100100002E1483140815BD14DE142E14084AD73B90
:100110003BCE016E84BCBFFDC12F3D6C74319ABDD6
:1001200056833DDA3D00C77F11BED9E4BB4C3E91FA
:100130006BAAAABE000000803F05A84CCDB2D44EE9
:10014000B93836A9020C50B9918688083CA6AAAAEB
:100150002ABE000000803F08000000BE9224491221
:100160003EABAAAA2ABECDCCCC4C3E00000080BE3D
:10017000ABAAAAAA3E00000000BF000000803F001A
:1001800000000000084178D3BB4387D1133D190E0E
:100190003CC3BD4282AD2B3E68EC8276BED98FE176
:1001A000A93E4C80EFFFBE01C4FF7F3F000000006E
:1001B000000000002200250028002B002E00310046
:1001C000340002010000050108010B0100002100BC
:1001D000240027002A002D00300033000101000018
:1001E000040107010A0105050505070508080808B7
:1001F000020202020A0A08080404040401010101BF
:1002000001010101030303030303030304070707B9
:100210000C0C0C0C0C0C0C0C02020202060606065E
:10022000060606060B0B0B0B0B0B0B0B010210202B
:10023000200808102040102040800201020108041C
:1002400002010102040810204080804020100804B0
:100250000201800402018040201008040201080409
:10026000020101020408102040800102040810204D
:100270004080B56206010300F00500FF19B5620673
:10028000010300F00300FD15B56206010300F00153
:1002900000FB11B56206010300F00000FA0FB56221
:1002A00006010300F00200FC13B56206010300F032
:1002B0000400FE17B562060103000102010E47B5F6
:1002C00062060103000103010F49B5620601030044
:1002D000010601124FB562060103000112011E67FB
:1002E000B5620616080003070300510800008A41A2
:1002F000B56206080600C80001000100DE6A24504D
:100300005542582C34312C312C303030332C303095
:1003100030312C3131353230302C302A31450D0A14
:100320000000010203050A0B141541524D3B414EDA
:10033000474C453B484F52495A4F4E3B4241524F22
:100340003B4D41473B47505320484F4D453B47505D
:100350005320484F4C443B4D495353494F4E3B4C1F
:10036000414E443B00524F4C4C3B50495443483B58
:100370005941573B414C543B506F733B506F735244
:100380003B4E6176523B4C4556454C3B4D41473BBD
:1003900056454C3B0000983711241FBECFEFD1E2E9
:1003A000DEBFCDBF00E00CBF12E0A0E0B2E0EEE1A6
:1003B000F8E700E00BBF02C007900D92A836B10726
:1003C000D9F72EE0A8E6B2E001C01D92A738B20727
:1003D000E1F711E0CCECD1E000E006C02197010983
:1003E000802FFE010E94CC3BCB3CD10780E0080768
:1003F000A9F70E94951D0C940D3C02CE613526E4B0
:100400007207810591052CF0605A7C488109910999
:100410000895603B29EB72072FEF8207920724F4BF
:10042000605673478F4F9F4F0895CF93DF93262FCA
:10043000A0E0B0E04091D00D5091D10D6091D20D6F
:100440007091D30D222361F0769567955795479566
:10045000481759076A077B0790F4DB01CA010FC0F0
:10046000481759076A077B0710F4DB01CA0120917E
:100470003D0A30913E0A8217930708F4C901C091E2
:10048000CF0CD091D00CC817D907B8F420E030E0D9
:1004900048EC52E46091F00D7091F10D8091F20DF5
:1004A0009091F30D0E94983A0E940739CE01860F71
:1004B000971F9093D00C8093CF0CDF91CF9108952C
:1004C0002F923F924F925F926F927F928F929F9264
:1004D000AF92BF92CF92DF92EF92FF920F931F9352
:1004E000CF93DF93CDB7DEB7E2970FB6F894DEBFB8
:1004F0000FBECDBF2091710D3091720D4091730DE3
:100500005091740D2D8F3E8F4F8F58A38091610DA8
:100510009091620DA091630DB091640D89A39AA38F
:10052000ABA3BCA32091650D3091660D4091670D82
:100530005091680D2DA33EA34FA358A78090F00DB6
:100540009090F10DA090F20DB090F30D80916D0D93
:1005500090916E0DA0916F0DB091700D89839A836B
:10056000AB83BC83B0588D839E83AF83B88723E071
:1005700031E642E05CE3C501B4010E94D2379B0141
:10058000AC01C501B4010E949F3869A77AA78BA767
:100590009CA72091690D30916A0D40916B0D50918F
:1005A0006C0D2DA73EA74FA758AB2090400A309066
:1005B000410A44275527421953095A8B498B81E92F
:1005C0009DE09E878D87A1EABDE0BC8FAB8FE9ECF3
:1005D000FCE0FA8FE98F21E03DE03AAB29AB41EF37
:1005E00059E0588F4F8B09ED1CE0AD85BE854D90CD
:1005F0005D906D907D90BE87AD87C301B2010E9472
:100600003A392D8D3E8D4F8D58A10E94983A0E9407
:100610000739653671058105910524F064E670E0BF
:1006200080E090E0EB8DFC8D21913191FC8FEB8F80
:10063000388B2F87DC01CB018C393FEF9307A30761
:10064000B30724F48CE99FEFAFEFBFEFBC014F85F8
:100650005889641B750BA98DBA8D6D937D93BA8FE4
:10066000A98F6B01770FEE08FF08C701B6010E9442
:100670003A3929A13AA14BA15CA10E94983A0E9463
:10068000073969877A878B879C87C701B601640D14
:10069000751D861D971D0E943A392DA13EA14FA1BF
:1006A00058A50E94983AA50194010E94983AE9A998
:1006B000FAA920813181428153810E94D2376B0196
:1006C0007C012D813E814F8158850E94983887FD9D
:1006D0000FC029813A814B815C81B601C7010E941C
:1006E000483A18164CF4C980DA80EB80FC8004C0CC
:1006F000CD80DE80EF80F884C601D701E9A9FAA990
:1007000080839183A283B383B601C7010E94073916
:1007100029853A85260F371F3A872987A9A9BAA9BB
:1007200018968D919D910D90BC91A02D8B8B9C8BDB
:10073000AD8BBE8BE9A9FAA984819581A681B78189
:10074000A3019201281B390B4A0B5B0BCA01B901AB
:100750000E943A39A50194010E949F382B893C8957
:100760004D895E890E94D1379B01AC0169A57AA5AC
:100770008BA59CA50E94983A9B01AC016B897C8952
:100780008D899E890E94D2379B01AC01A9A9BAA983
:1007900050966D937D938D939C935397FD01448266
:1007A00055826682778218966D937D938D939C9384
:1007B0001B978F859889C1968336910500F16DA5A9
:1007C0007EA58FA598A90E94983A0E940739613D9D
:1007D000B7E07B078105910524F060ED77E080E0CC
:1007E00090E0DC01CB018033E8EF9E07EFEFAE072E
:1007F000BE0744F480E398EFAFEFBFEF03C080E0A3
:1008000090E0DC0169857A85680F791F29893A892A
:10081000621773072CF02616370624F4B10102C0C4
:1008200069897A89AF89B88D6D937D93B88FAF8BC5
:10083000C601D701F80180839183A283B38329A9DC
:100840003AA92C5E3F4F3AAB29AB0C5E1F4F4D854A
:100850005E8549595D4009F0C8CEE2960FB6F8941E
:10086000DEBF0FBECDBFDF91CF911F910F91FF90E3
:10087000EF90DF90CF90BF90AF909F908F907F9040
:100880006F905F904F903F902F9008950F931F931C
:100890008091DC0D9091DD0DA091DE0DB091DF0D0A
:1008A0000091C50C1091C60C2091C70C3091C80C5A
:1008B000BC01CD01601B710B820B930B9FDD97FF79
:1008C00007C090958095709561957F4F8F4F9F4F92
:1008D00021E061317742810591050CF420E0822FFF
:1008E0001F910F9108954F925F926F927F928F9216
:1008F0009F92AF92BF92CF92DF92EF92FF920F93AF
:100900001F93CF93DF9300D01F92CDB7DEB727019F
:100910003801461A570A680A790AC301B2012983C5
:100920003A834B835C830E943A392B013C01298135
:100930003A814B815C81C601B501621B730B840B4C
:10094000950B0E943A392091A50D3091A60D40914A
:10095000A70D5091A80D0E94983A6B017C01A3014C
:100960009201C301B2010E94983A2B013C01A701F8
:100970009601C701B6010E94983A9B01AC01C301E0
:10098000B2010E94D2370E94053B26EF3CE74EE8B9
:100990005FE30E94983A0E940C39F40160837183EE
:1009A000828393830F900F900F900F90DF91CF91E0
:1009B0001F910F91FF90EF90DF90CF90BF90AF907D
:1009C0009F908F907F906F905F904F9008954F927F
:1009D0005F926F927F928F929F92AF92BF92CF92CF
:1009E000DF92EF92FF920F931F93CF93DF9300D08C
:1009F0001F92CDB7DEB72B013C01E982FA820B834F
:100A00001C83C601B501621B730B840B950B0E94FE
:100A10003A396B017C0169817A818B819C816419EF
:100A20007509860997090E943A392091A50D3091E0
:100A3000A60D4091A70D5091A80D0E949F380E94CD
:100A4000073990958095709561957F4F8F4F9F4F97
:100A50000E943A39A70196010E94453820EA3CE0FD
:100A600043EB55E40E94983A20E030EA4CE056E42B
:100A70000E94D2370E94073997FD06C0F4016083B7
:100A80007183828393830BC0DC01CB018056934733
:100A9000AF4FBF4FF40180839183A283B3830F9044
:100AA0000F900F900F90DF91CF911F910F91FF90BA
:100AB000EF90DF90CF90BF90AF909F908F907F90FE
:100AC0006F905F904F9008954F925F926F927F92D8
:100AD0008F929F92AF92BF92CF92DF92EF92FF924E
:100AE0000F931F93CF93DF9300D01F92CDB7DEB744
:100AF00080914C0A87FF63C04090B60D5090B70DAF
:100B00006090B80D7090B90D4114510461047104E6
:100B100069F42091B20D3091B30D4091B40D509114
:100B2000B50DA4E6B0E00E94E93B5BC08091BA0D30
:100B30009091BB0DA091BC0DB091BD0D89839A839E
:100B4000AB83BC832091020A3091030A4091040ACE
:100B50005091050A6091FE097091FF098091000A89
:100B60009091010AE2EB8E2EEDE09E2EA980BA80D4
:100B7000CB80DC80830172012ADF2091020A309150
:100B8000030A4091040A5091050A6091FE09709190
:100B9000FF098091000A9091010AF0ED8F2EFDE08F
:100BA0009F2EA980BA80CB80DC809DDE6091B20D43
:100BB0007091B30D8091B40D9091B50D13C020913B
:100BC000330A23FF19C06091DC0D7091DD0D809117
:100BD000DE0D9091DF0D24FF04C06055764481093D
:100BE00091090CDC24E630E040E050E00E94B03B8C
:100BF0003093200A20931F0A0F900F900F900F90B0
:100C0000DF91CF911F910F91FF90EF90DF90CF90E8
:100C1000BF90AF909F908F907F906F905F904F901C
:100C200008952F923F924F925F926F927F928F9290
:100C30009F92AF92BF92CF92DF92EF92FF920F936B
:100C40001F93CF93DF93CDB7DEB7EA970FB6F89433
:100C5000DEBF0FBECDBF7C018090DC0D9090DD0D1E
:100C6000A090DE0DB090DF0D8091C50C9091C60C68
:100C7000A091C70CB091C80CA5019401281B390B99
:100C80004A0B5B0BCA01B9010E943A3923ED32E0ED
:100C900047E359E30E94983A0E94FB3A2B013C013A
:100CA0006091D00D7091D10D8091D20D9091D30DA6
:100CB0000E9438399B01AC01C301B2010E94983AED
:100CC0000E9407397093CE0C6093CD0C072E000C58
:100CD000880B990B0E943A392B013C0180913F0A05
:100CE000682F70E080E090E00E943A3920E030E028
:100CF00048EC52E40E949F389B01AC01C301B20151
:100D00000E94983A0E940739693C710514F068EC1A
:100D100070E08B0168337F4F14F408E31FEF88E223
:100D200093E2A0E0B0E0BC01CD01681979098A091D
:100D30009B090E943A3923ED32E047E359E30E94D0
:100D4000983A4B015C010E949C386B877C878D87A9
:100D50009E87C501B4010E94FB3A2B013C01B701FB
:100D600080E090E00E9438396B017C01662777278C
:100D7000601B710B072E000C880B990B0E943A39EF
:100D80004B015C012B853C854D855E85C701B60115
:100D90000E94983A6F87788B898B9A8BA301920176
:100DA000C501B4010E94983A9B01AC016F85788916
:100DB00089899A890E94D1370E9407396D837E8381
:100DC0008F8398872B853C854D855E85C501B40151
:100DD0000E94983A4B015C01A3019201C701B60140
:100DE0000E94983A9B01AC01C501B4010E94D23720
:100DF0000E94073969837A838B839C838091510D8C
:100E00009091520DA091530DB091540D8FA398A7BE
:100E1000A9A7BAA72091550D3091560D4091570DB5
:100E20005091580D2BA73CA74DA75EA74090F00D01
:100E30005090F10D6090F20D7090F30D80905D0D6B
:100E400090905E0DA0905F0DB090600DD501C40133
:100E5000B0588B879C87AD87BE8723E031E642E0A0
:100E60005CE3C301B2010E94D2379B01AC01C30114
:100E7000B2010E949F386FA778AB89AB9AAB2091E3
:100E8000590D30915A0D40915B0D50915C0D2BAB7B
:100E90003CAB4DAB5EAB4091400A5091410A588B40
:100EA0004F875195419551095C8F4B8FCE0101962B
:100EB0009E8B8D8BA1EABDE0BEA3ADA3E9ECFCE067
:100EC000FCA3EBA329ED222E2CE0322E21EF39E0FA
:100ED0003AA329A341E05DE05C8B4B8B08969A878F
:100EE0008987ED89FE8981919191A191B191FE8BC4
:100EF000ED8BEDA1FEA121913191FEA3EDA3821B0B
:100F0000930B893EF3E09F0714F088EE93E088315D
:100F10002CEF920714F488E19CEFABA1BCA18D9358
:100F20009D93BCA3ABA39C01990F440B550B2F8B36
:100F3000388F498F5A8FCA01B9010E943A396B0123
:100F40007C012FA138A549A55AA50E94983A0E9474
:100F500007396FAB78AF89AF9AAF2BA53CA54DA5EC
:100F60005EA5C701B6010E94983AA30192010E94B2
:100F7000983AD1012D913D914D915C910E94D237CB
:100F80007B018C012B853C854D855E850E949838C0
:100F900087FD0BC0A5019401B701C8010E94483A22
:100FA00018163CF47401850104C0EB84FC840D85A3
:100FB0001E85C701D801F10180839183A283B38389
:100FC00020853185428553852D8F3E8F4F8F58A3C5
:100FD00084819581A681B7812F89388D498D5A8D5D
:100FE000281B390B4A0B5B0BCA01B9010E943A3925
:100FF000A30192010E949F382D8D3E8D4F8D58A1E7
:101000000E94D1379B01AC016FA578A989A99AA943
:101010000E94983A9B01AC016D8D7E8D8F8D98A1B9
:101020000E94D2379B01AC01D10150966D937D9304
:101030008D939C9353978F89988DA98DBA8DF101CB
:1010400084839583A683B78320873187428753871C
:101050006BA97CA98DA99EA90E94983A0E94073984
:10106000CFA8D8ACC60ED71EB701C8010E94073959
:101070006C0D7D1DEB8DFC8D6E177F073CF02F8571
:1010800038892617370724F4B90102C06B8D7C8D8F
:10109000A9A1BAA16D937D93BAA3A9A3C701D80151
:1010A000EB89FC8980839183A283B383F4E12F0EC3
:1010B000311C2B893C892C5E3F4F3C8B2B8B4D89FF
:1010C0005E8989859A854817590709F00ACFEA96FB
:1010D0000FB6F894DEBF0FBECDBFDF91CF911F9149
:1010E0000F91FF90EF90DF90CF90BF90AF909F90C7
:1010F0008F907F906F905F904F903F902F900895CA
:101100009B01AC01AA27429FB0015302C0013403E6
:101110009A0B700D811D9A1F52039A0B700D811D41
:101120009A1F112408956F927F928F929F92AF928F
:10113000BF92CF92DF92EF92FF920F931F93CF93C4
:10114000DF93EC018B016A807B80CE80DF80EA84B4
:10115000FB84B301F80180819181D2DF4B015C01F6
:10116000B601F80182819381CBDFAB01BC01480D50
:10117000591D6A1D7B1D88859985AA85BB85841BA1
:10118000950BA60BB70B88879987AA87BB87B701F2
:10119000F80180819181B4DF4B015C01B601F80157
:1011A00084819581ADDF861A970AA80AB90A8881D9
:1011B0009981AA81BB81880E991EAA1EBB1E8882B6
:1011C0009982AA82BB82B701F8018281938198DF5C
:1011D0006B017C01B301F8018481958191DFDC0111
:1011E000CB018C0D9D1DAE1DBF1D0C811D812E815F
:1011F0003F81800F911FA21FB31F8C839D83AE83FD
:10120000BF83DF91CF911F910F91FF90EF90DF90FF
:10121000CF90BF90AF909F908F907F906F900895E8
:101220004F925F926F927F928F929F92AF92BF92F6
:10123000CF92DF92EF92FF92CF936B017C01490135
:101240005A010E943A392B013C01B701A601F7FE71
:1012500007C044275527BA014C195D096E097F095B
:10126000D501C401B7FE07C088279927DC0188197A
:101270009909AA09BB09C1E0481759076A077B0702
:1012800044F0C0E0C501B4010E943A39A3019201C3
:1012900008C0C501B4010E943A399B01AC01C301E9
:1012A000B2010E949F382B013C019B01AC010E94BE
:1012B000983A21ED31E944E650E40E94D2379B018F
:1012C000AC01C301B2010E949F3823EC3DEC4FEF0B
:1012D00054E40E94983A0E9407399B01CC2359F0AC
:1012E000B7FE12C0F7FE03C0285037400DC09B0167
:1012F000285F384F09C0F7FC03C024E833E002C080
:101300002CE73CEF261B370BC901CF91FF90EF90E4
:10131000DF90CF90BF90AF909F908F907F906F9015
:101320005F904F900895CF92DF92EF92FF920F93CC
:101330001F93CF93DF9301E71DE0CEE4DAE06C85E5
:1013400070E080E090E00E94383920E030E048EC26
:1013500052E40E949F38F8016083718382839383F3
:101360006D8570E080E090E00E94383920E030E048
:1013700048EC52E40E949F38F801648375838683A9
:101380009783C12CD12C8AEFE82E84E4F82EC486F2
:10139000D586E686F78601E61DE06F8570E080E081
:1013A00090E00E94383920E030E040E251E40E94B1
:1013B0009F38F8016083718382839383688970E02A
:1013C00080E090E00E94383920E030E048EC52E4C0
:1013D0000E949F38F80164837583868397836989A7
:1013E00070E080E090E00E94383920E030E04AE789
:1013F00054E40E949F38F801608771878287938741
:10140000C486D586E686F78601E51DE06A8970E028
:1014100080E090E00E94383920E030E040E251E482
:101420000E949F38F80160837183828393836B8964
:1014300070E080E090E00E94383920E030E048EC35
:1014400052E40E949F38F8016483758386839783F2
:101450006C8970E080E090E00E94383920E030E054
:101460004AE754E40E949F38F801608771878287B9
:101470009387C486D586E686F786DF91CF911F9144
:101480000F91FF90EF90DF90CF900895CF93DF936F
:1014900081EF99E0FC0111821082C9E2DDE018823F
:1014A00019821A821B821C821D821E821F8218864C
:1014B00019861A861B86A1E0BDE01D921D921D9221
:1014C0001C92139714961D921D921D921C921797B1
:1014D00018961D921D921D921C921B9729ED3CE0BF
:1014E000F9011082118212821382148215821682EF
:1014F00017821086118612861386FC0113821282CF
:101500001C8A1D8A1E8A1F8A188E198E1A8E1B8E9F
:101510001C8E1D8E1E8E1F8E54961D921D921D9226
:101520001C92579758961D921D921D921C925B9784
:101530005C961D921D921D921C925F97F901148A70
:10154000158A168A178A108E118E128E138E148E9B
:10155000158E168E178E1092FD0986EF9FEF9093D1
:1015600041028093400281E080934202E6EBFDE07D
:1015700010821182128213821482158216821782BF
:10158000ECE4FAE080818F778083DF91CF9108953A
:101590000F931F93CF93C0914C0AC4FF48C0809112
:1015A0001E0A853008F443C06091FE097091FF095E
:1015B0008091000A9091010A6093E80D7093E90D03
:1015C0008093EA0D9093EB0D0091020A1091030AAB
:1015D0002091040A3091050A0093EC0D1093ED0D53
:1015E0002093EE0D3093EF0D0E943A3925E93FEB41
:1015F00046ED53E30E94983A25E33AEF4EE85CE368
:101600000E94983A0E949C386093A50D7093A60D95
:101610008093A70D9093A80D8091250A9091260A9A
:101620009093BF0D8093BE0DC062C0934C0ACF91C2
:101630001F910F9108952F923F924F925F926F9258
:101640007F928F929F92AF92BF92CF92DF92EF9252
:10165000FF920F931F93CF93DF93CDB7DEB72C97F5
:101660000FB6F894DEBF0FBECDBFDC01ED90FD904C
:101670000D911C91E982FA820B831C83E0EEFDE060
:10168000E082F18202831383DB01AD90BD90CD90A7
:10169000DC90A092E40DB092E50DC092E60DD092E0
:1016A000E70DDA01ED90FD900D911C91ED82FE8227
:1016B0000F8318874DEB242E4CE0342EF101E0828D
:1016C000F18202831383D9014D905D906D907C90DF
:1016D0004482558266827782DC016D917D918D9185
:1016E0009C910E943A3925E93FEB46ED53E30E9475
:1016F000983A25E33AEF4EE85CE30E94983A0E945C
:101700009C3869877A878B879C876093A50D709337
:10171000A60D8093A70D9093A80D5CED852E5DE03E
:10172000952EE980FA800B811C81A30192016D81C5
:101730007E818F8198854BD9A090E40DB090E50D06
:10174000C090E60DD090E70DE0EEFDE0E080F18086
:1017500002811381D10114962D913D914D915C919F
:1017600017976D917D918D919C91E0ED8E2EEDE01E
:101770009E2EB9D801E91DE08091E40D9091E50D10
:10178000A091E60DB091E70DF1014480558066808F
:101790007780BC01CD0164197509860997090E94FB
:1017A0003A3929853A854B855C850E94983A0E9492
:1017B0000739D80114966D937D938D939C93179759
:1017C000E0EEFDE080819181A281B381F101408151
:1017D000518162817381841B950BA60BB70BF801B5
:1017E00080839183A283B38380913D0A90913E0AC6
:1017F0009093D00C8093CF0C8091DC0D9091DD0DF7
:10180000A091DE0DB091DF0D8093C50C9093C60CB6
:10181000A093C70CB093C80C2C960FB6F894DEBFFB
:101820000FBECDBFDF91CF911F910F91FF90EF9031
:10183000DF90CF90BF90AF909F908F907F906F90F0
:101840005F904F903F902F900895CF93C82F22E044
:101850003AE04EEF59E0B901CA01EDDEC0931D0A2E
:1018600083E08093FD09CF910895CF92DF92EF92AC
:10187000FF92362F272F6091390A70913A0AE4E6D9
:10188000E69FA001E79F500D112460E070E0C32E99
:10189000D22E7C014C155D056E057F0514F46A019E
:1018A0007B0180912D0A90912E0AA0912F0AB09170
:1018B000300AC816D906EA06FB0689F4C092CB0D99
:1018C000D092CC0DE092CD0DF092CE0DC0928D0D48
:1018D000D0928E0DE0928F0DF092900D42C08093C9
:1018E000CB0D9093CC0DA093CD0DB093CE0D0E9457
:1018F000FC176093890D70938A0D80938B0D9093E4
:101900008C0DC0928D0DD0928E0DE0928F0DF092C5
:10191000900D1092850D1092860D1092870D1092E9
:10192000880D80912D0A90912E0AA0912F0AB091D6
:10193000300A8093810D9093820DA093830DB09314
:10194000840D8C159D05AE05BF0514F481E006C01D
:10195000C816D906EA06FB0624F48FEF8093CF0D54
:1019600002C01092CF0DFF90EF90DF90CF900895BE
:10197000CF92DF92EF92FF9280914C0A897F846030
:10198000806480934C0A8091FE099091FF09A09198
:10199000000AB091010A8093D10C9093D20CA093CD
:1019A000D30CB093D40C8091020A9091030AA091B9
:1019B000040AB091050A8093D50C9093D60CA0939D
:1019C000D70CB093D80C25ED3CE041ED5CE0B901BB
:1019D000CA0131DE1092060A2091420A3091430A70
:1019E000C0902D0AD0902E0AE0902F0AF090300A75
:1019F0002115310519F4C701B6010EC0E4E6E29FD6
:101A0000C001E39F900D1124BC0180E090E0C61658
:101A1000D706E806F9067CF728DF80914C0A8F7715
:101A200080934C0A81E08093FD09FF90EF90DF9056
:101A3000CF900895FC0185E5615019F09191890FCF
:101A4000FBCF08952F923F924F925F926F927F92B9
:101A50008F929F92AF92BF92CF92DF92EF92FF92BE
:101A60000F931F93CF93DF93CDB7DEB766970FB673
:101A7000F894DEBF0FBECDBF80914B0A982F9270B5
:101A800081FD05C080914C0A8F7D80934C0A809126
:101A90004C0A85FD02C091117BDD8091330A80FDE7
:101AA00041C00E94FC170091F40D1091F50D20919A
:101AB000F60D3091F70D601B710B820B930B0E949A
:101AC000383920E030E04AE754E40E949F386093C0
:101AD000F00D7093F10D8093F20D9093F30D0E9431
:101AE000FC176093F40D7093F50D8093F60D9093B1
:101AF000F70DC090F00DD090F10DE090F20DF09048
:101B0000F30D20E030E040E85FE3C701B6010E943A
:101B1000983887FDCFC0C12CD12C30E8E32E3FE3AD
:101B2000F32EC8C08091440E90E0019665E070E00D
:101B30000E947B3B8093440E0091FD0903500E8B65
:101B40004EEF242E49E0342E2CE33EE03D8B2C8BCF
:101B500044E35EE05B8B4A8BA0E3BEE0B98BA88BCD
:101B6000E8E2FEE0FA87E987880F991F880F991F3E
:101B70008C010050124F28EF3DE03E872D8732E068
:101B80003F87D101CD90DD90ED90FC90EC89FD89EF
:101B9000C192D192E192F192FD8BEC8BC701B6011B
:101BA00020E836E948E950E00E94B03B49015A017B
:101BB000AA89BB892D933D934D935D93BB8BAA8BD3
:101BC00060E879E687E69FEF0E946C3B26013701CB
:101BD000460E571E681E791EC301B20120E137E28E
:101BE00040E050E00E94B03B69017A01E889F98940
:101BF00021933193F98BE88BE985FA858081918176
:101C0000A281B381F8012081318142815381821BFD
:101C1000930BA40BB50B4082518262827382BC018C
:101C2000CD01640D751D861D971DA985BA856D931F
:101C30007D938D939C93139725E030E040E050E036
:101C40000E94B03B29013A01A501940160E876E9C0
:101C500088E990E00E946C3B460E571E681E791E74
:101C6000ED85FE854192519261927192FE87ED87DA
:101C7000FE89F23070F422E0C21AD10835EEC316A4
:101C800033E0D30630F4D1014D925D926D927C9297
:101C90001397B4E02B0E311CE985FA853496FA8748
:101CA000E9870C5E1F4FFF85F13009F4FACE41E061
:101CB0004F8767CFC092F00DD092F10DE092F20DF8
:101CC000F092F30DA090EC0DB090ED0DC090EE0DE4
:101CD000D090EF0DE090E80DF090E90D0091EA0D45
:101CE0001091EB0D2091020A3091030A4091040AF1
:101CF0005091050A6091FE097091FF098091000AD8
:101D00009091010ADE0115964D010E94E704A09012
:101D1000EC0DB090ED0DC090EE0DD090EF0DE09079
:101D2000E80DF090E90D0091EA0D1091EB0D209176
:101D3000020A3091030A4091040A5091050A609109
:101D4000FE097091FF098091000A9091010AFE013D
:101D500031964F010E94730469817A818B819C8145
:101D600024E6C22ED12CE12CF12CA70196010E9471
:101D70008E3B30939308209392086D817E818F81F2
:101D80009885A70196010E94B03B3093910820935B
:101D9000900880914C0A85FD08C01092930810921B
:101DA000920810929108109290082091450A309163
:101DB000460A2115310559F0409192085091930837
:101DC0002417350720F48670843009F0D1DD809126
:101DD000B10D1091330A4090020A5090030A6090AE
:101DE000040A7090050A2091FE093091FF09409184
:101DF000000A5091010A29873A874B875C8788231C
:101E000009F480C02091F00D3091F10D4091F20D58
:101E10005091F30D60E070E080E89FE30E949F38EE
:101E20004B015C018091AD0D9091AE0DA091AF0D75
:101E3000B091B00DA3019201281B390B4A0B5B0B2B
:101E4000CA01B9010E943A392091A50D3091A60D21
:101E50004091A70D5091A80D0E94983AA5019401B8
:101E60000E94983A0E9407396B017C017093A40D7F
:101E70006093A30D8091A90D9091AA0DA091AB0D37
:101E8000B091AC0D29853A854B855C85281B390BB3
:101E90004A0B5B0BCA01B9010E943A39A5019401B2
:101EA0000E94983A0E9407397093A20D6093A10D89
:101EB00011FD28C020919F0D3091A00DC20ED31EA0
:101EC000D7FE03C03FEFC31AD30AD594C794D0926C
:101ED000A40DC092A30D20919D0D30919E0DC901BE
:101EE000860F971F97FD0196959587959093A20D64
:101EF0008093A10DD092A00DC0929F0D90939E0D46
:101F000080939D0D81E08093B10D4092AD0D509274
:101F1000AE0D6092AF0D7092B00D89859A85AB853C
:101F2000BC858093A90D9093AA0DA093AB0DB0939F
:101F3000AC0D11FF9AC00091A30D1091A40D8091DA
:101F40009B0D90919C0DB801681B790B072E000C1E
:101F5000880B990B0E943A3920E030E040E05FE3C3
:101F60000E94983A20E030E040E05FE30E94983A17
:101F70000E9407396B017C0110939C0D00939B0D0F
:101F8000B801110F880B990B0E943A3920E030E01C
:101F900040E05FE30E94983A0E940739CB01770F37
:101FA000AA0BBB0B840D951DA61DB71D0D2C000C97
:101FB000EE08FF08C80ED91EEA1EFB1EC092D80DFF
:101FC000D092D90DE092DA0DF092DB0D0091A10DC7
:101FD0001091A20D8091990D90919A0DB801681BF6
:101FE000790B072E000C880B990B0E943A3920E0E0
:101FF00030E040E05FE30E94983A20E030E040E0CB
:102000005FE30E94983A0E9407396B017C011093AC
:102010009A0D0093990DB801110F880B990B0E942E
:102020003A3920E030E040E05FE30E94983A0E94B5
:102030000739CB01770FAA0BBB0B29853A854B8556
:102040005C85820F931FA41FB51F0D2C000CEE089A
:10205000FF08C80ED91EEA1EFB1EC092D40DD092F6
:10206000D50DE092D60DF092D70D80914C0A867076
:1020700009F4F4C4A090E40DB090E50DC090E60D15
:10208000D090E70DE090E00DF090E10D0091E20DB1
:102090001091E30DACED8A2EADE09A2EA3019201D2
:1020A00069857A858B859C850E94E7048091330A37
:1020B000A090E40DB090E50DC090E60DD090E70D36
:1020C000E090E00DF090E10D0091E20D1091E30D34
:1020D00081FF53C02091D80D3091D90D4091DA0D78
:1020E0005091DB0D6091D40D7091D50D8091D60D7E
:1020F0009091D70DF0ED8F2EFDE09F2E0E9473047E
:102100008091E40D9091E50DA091E60DB091E70D61
:102110000091D80D1091D90D2091DA0D3091DB0D81
:10212000BC01CD01601B710B820B930B0E943A39ED
:102130002091A50D3091A60D4091A70D5091A80DAD
:102140000E94983A0E9407396093950D7093960DFE
:102150008093970D9093980D8091E00D9091E10DF3
:10216000A091E20DB091E30D4091D40D5091D50DA9
:102170006091D60D7091D70D52C02091020A309116
:10218000030A4091040A5091050A6091FE0970917A
:10219000FF098091000A9091010AE0ED8E2EEDE09A
:1021A0009E2E0E9473048091E40D9091E50DA09104
:1021B000E60DB091E70D0091020A1091030A2091FB
:1021C000040A3091050ABC01CD01601B710B820B22
:1021D000930B0E943A392091A50D3091A60D4091A4
:1021E000A70D5091A80D0E94983A0E94073960935C
:1021F000950D7093960D8093970D9093980D809107
:10220000E00D9091E10DA091E20DB091E30D4091B0
:10221000FE095091FF096091000A7091010A841B28
:10222000950BA60BB70B8093910D9093920DA093F5
:10223000930DB093940D8091FD09833029F4809122
:10224000CF0D882309F4ECC080914D0A81FDE8C0D0
:102250002091CF0D80918D0D90918E0DA0918F0DBD
:10226000B091900D213031F5AC01BD0100912D0AE6
:1022700010912E0A20912F0A3091300A0817190761
:102280002A073B0714F01092CF0D0091CB0D10914F
:10229000CC0D2091CD0D3091CE0D081719072A07CE
:1022A0003B070CF0ADC01091CF0D111124C0AC0153
:1022B000BD01A6C02F3FB9F7AC01BD0100912D0AA9
:1022C00010912E0A20912F0A3091300A8017910721
:1022D000A207B30714F01092CF0D0091CB0D10910F
:1022E000CC0D2091CD0D3091CE0D80179107A20716
:1022F000B307CCF285C0C090CB0DD090CC0DE09050
:10230000CD0DF090CE0DB701A601481B590B6A0BFD
:102310007B0B77FF07C070956095509541955F4F97
:102320006F4F7F4FC816D906EA06FB063CF4483CBF
:102330005105610571057CF003E010C0403931E0C2
:102340005307610571053CF444365105610571057B
:1023500024F406E003C004E001C005E04DD6C090BF
:10236000890DD0908A0DE0908B0DF0908C0DDC01E2
:10237000CB018C199D09AE09BF0904C0B695A7957C
:10238000979587950A95D2F7C090850DD090860DC8
:10239000E090870DF090880D113029F48C0D9D1D73
:1023A000AE1DBF1D08C0A7019601281B390B4A0BA3
:1023B0005B0BDA01C9018093850D9093860DA09384
:1023C000870DB093880D18D66093890D70938A0D90
:1023D00080938B0D90938C0D4091810D5091820DC7
:1023E0006091830D7091840D8091850D9091860D83
:1023F000A091870DB091880D480F591F6A1F7B1F50
:102400004093CB0D5093CC0D6093CD0D7093CE0DBA
:102410004093290A50932A0A60932B0A70932C0A3E
:10242000E091FD098E2F90E0FC013197EC30F10531
:1024300008F014C38827EE58FF4F8F4F0C94CC3B05
:102440000E946002D9D56093C70D7093C80D809328
:10245000C90D9093CA0D8BE018C00E946002CCD5C4
:102460000091C70D1091C80D2091C90D3091CA0D72
:10247000DC01CB01801B910BA20BB30B893893417C
:10248000A105B10508F4EAC28CE08093FD09E6C21B
:102490000E94600280914C0A8860806480934C0A9C
:1024A0001092C60D80914D0A8E7F826080934D0AF6
:1024B00089E0EBCF0E9460022091310A3091320A0C
:1024C0002D5E3F4F80914D0A27323105B8F420919F
:1024D000270A3091280A2C343F4F84F480FD15C020
:1024E0009091C60D983220F49F5F9093C60D0DC059
:1024F000816080934D0A1092C60D07C01092C60DE0
:1025000080FF03C08E7F80934D0A80914D0A80FF2B
:10251000A5C272D5DC01CB0188579C4EAF4FBF4F8F
:102520008093C20D9093C30DA093C40DB093C50DBD
:102530008AE0ABCF8091D00A9091D10A8C3494403C
:102540000CF416C1C090C20DD090C30DE090C40D24
:10255000F090C50D51D56C157D058E059F0508F0D1
:1025600007C17CC2C090C20DD090C30DE090C40DD5
:10257000F090C50DC114D104E104F104E9F43CD597
:10258000E091C00DF091C10D48EE53E0E49F900141
:10259000E59F300DF49F300D1124DC01CB01820F3B
:1025A000931FA11DB11D8093C20D9093C30DA093E5
:1025B000C40DB093C50D10C01FD56C157D058E05DB
:1025C0009F0550F080911B0A853A19F086E08093B0
:1025D000FD0985E080931D0A0E9460023FC2809140
:1025E000CF0D882321F08091330A87FD0FC022E0B0
:1025F0003AE04EEF59E06CEE7DE088EE9DE01BD8AE
:1026000082E08093FD0910921D0A28C20E94600298
:1026100088E059C06091330A66FB662760F98091B3
:102620003B0A90913C0A0E9415020E9411060E94EA
:1026300064058091350A9091360AA0E0B0E040919F
:10264000D00D5091D10D6091D20D7091D30D8417A2
:102650009507A607B70708F0A5C00E944604811198
:10266000A1C0FCC16091330A66FB662760F98091C6
:102670003B0A90913C0A0E9415020E9411060E949A
:1026800064058091350A9091360AA0E0B0E040914F
:10269000D00D5091D10D6091D20D7091D30D841752
:1026A0009507A607B70708F095C00E944604811158
:1026B00091C0D4C190911B0A953A09F09CC083E067
:1026C0008093FD0984E080931D0AC8C18091400277
:1026D0009091410297FF05C08091110A80934202B8
:1026E00013C0892BA1F486EF9FEF90934102809352
:1026F000400280911B0A853A39F483E08093FD09FA
:1027000084E080931D0A03C086E08093FD098091D8
:10271000400290914102181619060CF09FC12091B9
:10272000110A2093420226E02093FD09019790931D
:1027300041028093400292C110921D0A60914202B0
:102740006F3F09F471C086E1689FB00111246E5596
:102750007F4F46E150E087E09AE00E94AA3766E1A9
:1027600087E09AE067D990911C0A89135DC05FC029
:102770000E94571D80914B0A8E7F80934B0A1092C6
:10278000FD0980914C0A90914D0A9E7F9D7F909308
:102790004D0A1092C60D8F7B877F80934C0A0E9452
:1027A000460A5CC18091110A9091120A892B11F49A
:1027B00083E001C088E08093FD098091330A85FFA2
:1027C0004DC18091BE0D9091BF0D9093200A8093D2
:1027D0001F0A44C18091100A883009F06BCF8093A2
:1027E000FD0960912D0A70912E0A80912F0A909117
:1027F000300A3BD833C1823009F461CF833091F481
:102800008091110A9091120A9093C10D8093C00D8E
:102810001092C20D1092C30D1092C40D1092C50DEE
:1028200084E033CE86E031CE83E00FD817C1E0914B
:10283000100A8E2F90E0FC013197E830F10540F04E
:1028400087E003D8809142028F5F8093420206C1E5
:102850008827E258FF4F8F4F0C94CC3B6091170AAA
:102860007091180A8091190A90911A0A0E94350CE9
:1028700029EF39E045EF59E06CE07AE088E09AE032
:102880000E941B0B6091D00D7091D10D8091D20DE3
:102890009091D30D24E630E040E050E00E948E3B62
:1028A0008091370A9091380AA0E0B0E028173907E4
:1028B0004A075B0720F081E00E94250C03C085E0F9
:1028C0008093FD098091080A9091090AA0910A0A53
:1028D000B0910B0A8093F5099093F609A093F7093C
:1028E000B093F80980910C0A90910D0AA0910E0AFC
:1028F000B0910F0A8093F9099093FA09A093FB090C
:10290000B093FC099FCF80914C0A8F7780934C0A3B
:102910002091420A3091430A60912D0A70912E0A4B
:1029200080912F0A9091300AC090170AD090180A0F
:10293000E090190AF0901A0A2115310529F4C11402
:10294000D104E104F104A9F0C114D104E104F104BB
:1029500049F4E4E6E29FA001E39F500D11246A01CF
:10296000E12CF12C6C157D058E059F0510F4C70137
:10297000B6010E94350C81E01CC08091400290910C
:1029800041020A9641F48091130A9091140A90939F
:102990004102809340022091110A3091120A1216CE
:1029A000130654F48091070A90E02817390724F49D
:1029B00087E08093FD0946CF86E043CF1092B60DA5
:1029C0001092B70D1092B80D1092B90D1092BA0D69
:1029D0001092BB0D1092BC0D1092BD0D2091110AEA
:1029E0003091120A80914C0A37FF02C08F7733C0B2
:1029F000806880934C0AC901330FAA0BBB0B8093EC
:102A0000B20D9093B30DA093B40DB093B50D1ACF42
:102A10008091080A9091090AA0910A0AB0910B0AC4
:102A20008093B60D9093B70DA093B80DB093B90DE8
:102A300080910C0A90910D0AA0910E0AB0910F0A94
:102A40008093BA0D9093BB0DA093BC0DB093BD0DB8
:102A500080914C0A806880934C0AF4CE81E066969F
:102A60000FB6F894DEBF0FBECDBFDF91CF911F919F
:102A70000F91FF90EF90DF90CF90BF90AF909F901D
:102A80008F907F906F905F904F903F902F90089520
:102A900066E183E39AE00E941A0D8093480A46E1BA
:102AA00050E06CE870E083E39AE00C94BA37E3E31B
:102AB000FAE08AE0E934F80711F01192FACF809138
:102AC000330A85788A6280688093330A8091340A59
:102AD000816082608093340A84E690E09093360AA5
:102AE0008093350A24EF31E03093380A2093370A77
:102AF00090933A0A8093390A20E931E030933C0AF6
:102B000020933B0A90933E0A80933D0A88E280938B
:102B10003F0A88EB9BE09093410A8093400A8FE044
:102B200090E09093430A8093420A88E592E0909364
:102B3000460A8093450A84E68093440A82EB809398
:102B4000470AA6CF46E150E06CE870E083E39AE0E4
:102B50000E94AA3766E183E39AE00E941A0D9091E1
:102B6000480A891719F0A3DF80E0089581E00895ED
:102B700040E150E060E070E087E79EE00E94AA3705
:102B800060E187E79EE00E941A0D9091860E8917FA
:102B900041F01092770E88E893E19093790E80933C
:102BA000780E0895CF92DF92EF92FF920F931F93CA
:102BB000CF93DF93082F142FC0E0C62ED12CE12C29
:102BC000F12CC11789F0D0E0D01739F01F9A379A4D
:102BD000C701B601D9D1DF5FF7CF6CE370E080E0C9
:102BE00090E0D2D1CF5FEDCFDF91CF911F910F91C8
:102BF000FF90EF90DF90CF9008952F923F924F92E9
:102C00005F926F927F928F929F92AF92BF92CF927C
:102C1000DF92EF92FF920F931F93CF93DF93CDB785
:102C2000DEB72A970FB6F894DEBF0FBECDBF109265
:102C3000770E4CE750E060E170E08EE49AE00E948D
:102C4000AA376CE78EE49AE00E941A0D9091C90AA7
:102C50008913B4C0E0906D0AF12C00916C0A99EBD5
:102C6000C92E99E0D92E612C712C10E028EA822E11
:102C700024E0922EA12CB12C669C9001679C300D13
:102C8000300D11242F503109E29EC001E39E900DBA
:102C9000F29E900D11248A509A4F869DD001879DF7
:102CA000B00D969DB00D112498010E94E33BA50143
:102CB00094010E94B03BF601219331936F01FFEF25
:102CC0006F1A7F0A25E062167104B1F61091710A3D
:102CD00004E6011BE4E61E9FC00111249C838B8344
:102CE0002090720A422C512C612C712CE090C40A65
:102CF000F090C50A8AE397E06C01CE18DF0883EAFA
:102D000099E09A8389831A86312C80E1882E87E2A4
:102D1000982EA12CB12C9A85911B9987191614F025
:102D2000412F01C0402FE985EE02D001112491010D
:102D30000E94E33B6D837E838F839887242F30E04E
:102D4000D9010E94D43B9B01AC016D817E818F81B2
:102D500098850E94B03BDA01C9018C599F4FAF4F53
:102D6000BF4F84199509A609B709F9852F2FFF0FC1
:102D7000330B289FA001299F500D389F500D11241F
:102D80002B813C81240F351FD6010E94D43BA50125
:102D900094010E948E3B2E0D3F1DE981FA81219303
:102DA0003193FA83E983FA85F65FFA87FE3609F0F4
:102DB000B2CF0E949309C6DE81E006C043E064E61C
:102DC00086E0F0DE39D080E02A960FB6F894DEBFB8
:102DD0000FBECDBFDF91CF911F910F91FF90EF906C
:102DE000DF90CF90BF90AF909F908F907F906F902B
:102DF0005F904F903F902F900895CF93C82F1092DF
:102E0000770E6CE78EE49AE00E941A0D8093C90A4F
:102E10004CE750E060E170E08EE49AE00E94BA373F
:102E200037DE90DEEADEC13029F441E064E18FE074
:102E3000CF91B8CECF91089581E280934E0A2EE1D2
:102E400020934F0A97E19093500A8093510A209360
:102E5000520A9093530A9AE59093630A2AE02093CA
:102E6000640A24E62093650A24E42093540A2DE2A0
:102E70002093550A1092560A20E42093570A29E11C
:102E80002093580A38E13093590A3FE030935A0AA8
:102E900010925B0A10925C0A32E230935D0A3EE0C7
:102EA00030935E0A35E330935F0A2093600A809383
:102EB000610A83E58093620A88E28093660A109231
:102EC000690A10926A0A10926B0A90936C0A81E464
:102ED00080936D0A10926E0A10926F0A1092700A17
:102EE00082E38093710A1092720AE7E7FAE0119286
:102EF00011928AE0E938F807D1F71092740A10921B
:102F0000730A1092760A1092750A1092890A8EE757
:102F100094E09093C50A8093C40A88E290E090936D
:102F20008B0A80938A0A8AE08093C60A88E790E039
:102F30009093C80A8093C70ABADD80E05ECF3FB79E
:102F4000F8948091730E9091740EA091750EB091CB
:102F5000760E26B5A89B05C02F3F19F00196A11D3E
:102F6000B11D3FBFBA2FA92F982F8827820F911D1F
:102F7000A11DB11DBC01CD0142E0660F771F881F66
:102F8000991F4A95D1F708958F929F92AF92BF9261
:102F9000CF92DF92EF92FF926B017C01D0DF4B0169
:102FA0005C01C114D104E104F104E9F0C8DFDC01E3
:102FB000CB0188199909AA09BB09883E9340A1054C
:102FC000B10578F321E0C21AD108E108F10888EED2
:102FD000880E83E0981EA11CB11CC114D104E10429
:102FE000F10421F7DECFFF90EF90DF90CF90BF90FC
:102FF000AF909F908F9008952FB7F89460916F0EC7
:103000007091700E8091710E9091720E2FBF089585
:103010001F920F920FB60F9211242F933F938F930D
:103020009F93AF93BF9380916F0E9091700EA0917C
:10303000710EB091720E30916E0E23E0230F2D377A
:1030400020F40196A11DB11D05C026E8230F0296AC
:10305000A11DB11D20936E0E80936F0E9093700E84
:10306000A093710EB093720E8091730E9091740EB6
:10307000A091750EB091760E0196A11DB11D8093A1
:10308000730E9093740EA093750EB093760EBF914D
:10309000AF919F918F913F912F910F900FBE0F9005
:1030A0001F9018951F920F920FB60F9211240BB616
:1030B0000F922F938F939F93AF93BF93EF93FF93B1
:1030C00090913601ACE8B4E01396EC91139781E04F
:1030D0008E0F24E0E29FF0011124E057FB4F938311
:1030E00013968C93FF91EF91BF91AF919F918F9128
:1030F0002F910F900BBE0F900FBE0F901F90189541
:103100001F920F920FB60F9211240BB60F922F93AE
:103110008F939F93AF93BF93EF93FF939091D600BC
:10312000ACE8B4E01296EC91129781E08E0F24E0A7
:10313000E29FF0011124E057FB4F928312968C938B
:10314000FF91EF91BF91AF919F918F912F910F9030
:103150000BBE0F900FBE0F901F9018951F920F92ED
:103160000FB60F9211240BB60F922F938F939F934C
:10317000AF93BF93EF93FF939091CE00ACE8B4E090
:103180001196EC91119781E08E0F24E0E29FF001FF
:103190001124E057FB4F918311968C93FF91EF918F
:1031A000BF91AF919F918F912F910F900BBE0F9078
:1031B0000FBE0F901F9018951F920F920FB60F928F
:1031C00011240BB60F922F938F939F93AF93BF93BE
:1031D000EF93FF939091C600ACE8B4E0EC9181E0EE
:1031E0008E0F24E0E29FF0011124E057FB4F908303
:1031F0008C93FF91EF91BF91AF919F918F912F9100
:103200000F900BBE0F900FBE0F901F9018951F923E
:103210000F920FB60F9211240BB60F928F939F93BC
:10322000EF93FF938091870490918B04981771F02E
:103230008F5F87FD80E094E0899FF0011124EC58B6
:10324000FD4F9381909336018093870490918B0476
:10325000891305C0809131018F7D80933101FF91E9
:10326000EF919F918F910F900BBE0F900FBE0F901B
:103270001F9018951F920F920FB60F9211240BB644
:103280000F928F939F93EF93FF9380918604909179
:103290008A04981771F08F5F87FD80E094E0899F22
:1032A000F0011124EC58FD4F92819093D600809349
:1032B000860490918A04891305C08091D1008F7D86
:1032C0008093D100FF91EF919F918F910F900BBE52
:1032D0000F900FBE0F901F9018951F920F920FB670
:1032E0000F9211240BB60F928F939F93EF93FF933E
:1032F0008091850490918904981771F08F5F87FD04
:1033000080E094E0899FF0011124EC58FD4F9181F9
:103310009093CE008093850490918904891305C011
:103320008091C9008F7D8093C900FF91EF919F919B
:103330008F910F900BBE0F900FBE0F901F9018959E
:103340001F920F920FB60F9211240BB60F928F930C
:103350009F93EF93FF938091840490918804981732
:1033600071F08F5F87FD80E094E0899FF001112468
:10337000EC58FD4F90819093C60080938404909107
:103380008804891305C08091C1008F7D8093C1009E
:10339000FF91EF919F918F910F900BBE0F900FBEF9
:1033A0000F901F9018958093BC008FEF9091BC00F8
:1033B00097FD0EC08150D1F71092BC008091940807
:1033C000909195080196909395088093940808959C
:1033D0000895CF93C82F84EAE6DFC093BB0084E84A
:1033E000CF91E1CF0F931F93CF93DF931F921F9243
:1033F000CDB7DEB7880F4A836983EBDF0BEB10E0B4
:103400006981F801608384E8CEDF4A81F801408356
:1034100084E8C9DF84E98093BC000F900F90DF91AE
:10342000CF911F910F9108954EE264EF87E7DADFA5
:103430008EEECFDF86EF8093BB0084E8B4DF84E9B3
:103440008093BC000895CF92DF92EF92FF920F938A
:103450001F93CF93DF931F92CDB7DEB7082F6A017A
:10346000122F880F6983B5DF69816093BB0084E800
:103470009ADF802F880F8160ACDF7601012F015029
:1034800041F084EC90DF8091BB00F70181937F01D4
:10349000F6CF1150C601810F911D8C0184E883DFA6
:1034A0008091BB0094E99093BC00F80180830F9059
:1034B000DF91CF911F910F91FF90EF90DF90CF9010
:1034C0000895CF92DF92EF92FF92CF93DF9326E0A1
:1034D0004EE754E068EA89E6B6DF80917F0490E029
:1034E000982F882720917E04822B95958795959516
:1034F00087959093E6098093E5098091810490E097
:10350000982F882720918004822B959587959595F3
:1035100087959093E8098093E7098091830490E070
:10352000982F882720918204822B9195819591096B
:1035300095958795959587959093EA098093E909E4
:103540002091490A30914A0A21153105A9F145EE29
:1035500059E0E2E6FEE0CCE5DEE0211582E0380746
:1035600021F41082118212821382DA018D919D91D1
:10357000AD01092E000CAA0BBB0BC080D180E280EC
:10358000F3808C0D9D1DAE1DBF1D81939193A19362
:10359000B19369E0B595A795979587956A95D1F709
:1035A00089939993BEE0EE36FB07B9F621503109B5
:1035B00030934A0A2093490ACCE5DEE0E5EEF9E0D3
:1035C000A6E5BEE08991999120813181281B390BB4
:1035D0004D915C911197CA01805293402817390789
:1035E00034F0805C994F281739070CF4C901819396
:1035F00091938D939D9389E0EB3EF80719F7DF9146
:10360000CF91FF90EF90DF90CF90089526E04EE7A6
:1036100054E063E08EE117DFE3EDF9E0AEE7B4E0FC
:1036200014968C91149790E0982F882715962C91DA
:103630001597822B958784878C9190E0982F882707
:1036400011962C911197822B9195819591099787CD
:10365000868712968C91129790E0982F8827139660
:103660002C91822B918B808B08950F931F93CF9376
:10367000482F60E08EE1B6DECAE041E062E08EE114
:10368000B1DE64E670E080E090E07EDCBFDFAFEDAD
:10369000B9E0E8E6F2E08D919D9197FF03C0919526
:1036A00081959109AC01092E000C660B770B008106
:1036B000118122813381400F511F621F731F41937B
:1036C0005193619371938130904144F482E0E437E7
:1036D000F80709F7C15089F681E001C080E0CF9179
:1036E0001F910F9108951F920F920FB60F92112400
:1036F0000BB60F922F933F934F935F936F937F93EC
:103700008F939F93AF93BF93CF93DF93EF93FF93E9
:10371000C0910601D091550EDC2711DC7894C0933E
:10372000550ED2FF18C0C2FD12C02091450E309137
:10373000460EAB01421B530B9A014558534043318F
:10374000554048F4309305022093040204C070935E
:10375000460E6093450ED4FF18C0C4FD12C02091E0
:10376000470E3091480EAB01421B530B9A0145584E
:1037700053404331554048F43093090220930802E6
:1037800004C07093480E6093470ED5FF18C0C5FD66
:1037900012C02091490E30914A0EAB01421B530BCF
:1037A0009A01455853404331554048F430930B0239
:1037B00020930A0204C070934A0E6093490ED6FF0C
:1037C00018C0C6FD12C020914B0E30914C0EAB01BB
:1037D000421B530B9A01455853404331554048F41E
:1037E00030930D0220930C0204C070934C0E609332
:1037F0004B0ED7FF18C0C7FD12C020914D0E30915F
:103800004E0EAB01421B530B9A01455853404331B6
:10381000554048F430930F0220930E0204C0709379
:103820004E0E60934D0ED0FF18C0C0FD12C0209107
:103830004F0E3091500EAB01421B530B9A0145586D
:1038400053404331554048F4309301022093000225
:1038500004C07093500E60934F0ED1FF18C0C1FD8D
:1038600012C02091510E3091520EAB01421B530BEE
:103870009A01455853404331554048F43093030270
:103880002093020204C07093520E6093510ED3FF36
:1038900017C0C3FD11C02091530E3091540E621B0E
:1038A000730BCB01855893408331954048F4709356
:1038B00007026093060204C07093540E6093530E87
:1038C000FF91EF91DF91CF91BF91AF919F918F9138
:1038D0007F916F915F914F913F912F910F900BBE10
:1038E0000F900FBE0F901F9018956150B8F0209167
:1038F000A20930E0F901E656F64F408151E0540F3D
:10390000508354E0459F200D311D1124F901EA56E2
:10391000F74F2081FC012193CF01E7CF089520913B
:10392000A20930E0D901A857BB4F9C919F5F97FD3A
:1039300090E0F90144E0949FE00DF11D1124EC5852
:10394000FD4F80839C93F901E256F64F90818927C1
:10395000808308951F93CF93DF93C82FD92F162FFD
:10396000180F1C1719F08991DADFFBCFDF91CF9187
:103970001F910895E091A209F0E0E256F64F808190
:10398000CEDF8091A209813061F028F0823079F099
:10399000833099F008958091C10080628093C100C6
:1039A00008958091C90080628093C9000895809134
:1039B000D10080628093D1000895809131018062AE
:1039C000809331010895CF93DF93D82FC62F84E2DF
:1039D000A6DF8DE4A4DFD11102C08EE301C081E235
:1039E0009EDFE091A209F0E0E256F64F10828C2FA4
:1039F00096DFE091A209F0E0EA56F64F8081DF9170
:103A0000CF918DCF60E080E0DEDFB4CF0F931F93C6
:103A1000CF938C01C62F80E0D6DF6C2FC8019ADFD0
:103A2000CF911F910F91A6CFCF93DF93EC010E940E
:103A3000A137682F80E0C7DFFE018491882329F039
:103A4000FE0184916CDF2196F7CFDF91CF9192CF69
:103A5000E3ECF9E08081918123E0880F991F2A959A
:103A6000E1F790939D0080939C008281938133E0E5
:103A7000880F991F3A95E1F79093990080939800E9
:103A80008481958143E0880F991F4A95E1F79093CF
:103A9000A9008093A8008681978153E0880F991F21
:103AA0005A95E1F790939B0080939A000895809136
:103AB0004B0A81FF03C08D7F80934B0A08952091AC
:103AC000490A30914A0A80914B0A232B89F482FFDC
:103AD0000FC0982F9274A9F4826080934B0A809152
:103AE000250A9091260A9093200A80931F0A089530
:103AF00081FD07C041E06FEF82E054D881E0809300
:103B00007C04089560E187E79EE00E941A0D80938F
:103B1000860E40E150E060E070E087E79EE00E94A2
:103B2000BA3741E064E18FE03DC8CF93DF93CDB772
:103B3000DEB7C054D1090FB6F894DEBF0FBECDBFBB
:103B4000789484B5826084BD84B5816084BD85B578
:103B5000826085BD85B5816085BD80916E00816084
:103B600080936E001092810080918100826080932A
:103B7000810080918100816080938100809180002C
:103B80008160809380008091B10084608093B10057
:103B90008091B00081608093B0008091910082603C
:103BA0008093910080919100816080939100809139
:103BB00090008160809390008091A100826080934A
:103BC000A1008091A10081608093A1008091A0005C
:103BD00081608093A0008091210182608093210107
:103BE0008091210181608093210180912001816079
:103BF0008093200180917A00846080937A00809184
:103C00007A00826080937A0080917A00816080934C
:103C10007A0080917A00806880937A001092C100C7
:103C200092E09093C0001092C50080E18093C400A0
:103C30002091C10028692093C1009093C800109280
:103C4000CD008093CC002091C90028692093C90041
:103C50009093D0001092D5008093D4002091D10091
:103C600028692093D1009093300110923501809300
:103C7000340180913101886980933101279A3F9AFC
:103C80003D9A3E9AA8E2B2E024E02A0F8D9190E09E
:103C9000FC01E45DFD4F3491FC01EA51FE4F84913B
:103CA0008823A1F090E0880F991FFC01E453FE4F98
:103CB00045915491FC01EE54FE4F859194918FB73C
:103CC000F894FA019081932B90838FBF2A13DECF53
:103CD00080919000826080939000809190008E7F10
:103CE00080939000809191008061809391008091F9
:103CF00091008D7F80939100809196009091970024
:103D00008F6F9F63909397008093960080919000AF
:103D100088608093900080919000806880939000EC
:103D20008091A00082608093A0008091A0008E7F8F
:103D30008093A0008091A10080618093A100809178
:103D4000A1008D7F8093A1008091A6009091A70093
:103D50008F6F9F639093A7008093A6008091A0002F
:103D600080688093A0008091900080628093900092
:103D700088EE93E09093C4098093C3099093C60999
:103D80008093C5099093C8098093C7099093CA0985
:103D90008093C9095DDE6CE271E080E090E0F4D8C8
:103DA0000E94B8151092770E0E94FD158091770E33
:103DB000882321F081508093770EF6CF0E94B815AA
:103DC0000E94FD154091770E4F5F68E282E00E94ED
:103DD000D2150E94A21510920701E3E4F2E098E0E8
:103DE0009E0F20910801DF018191822B80930801B1
:103DF00020916D008C91822B80936D009E13F1CFEA
:103E000084E08093680015E00CE074E0F72E589889
:103E100059981092B9000093B800F092BC0010922B
:103E200095081092940864E670E080E090E0ACD8C9
:103E30004FE860E289E6D6DA65E070E080E090E085
:103E4000A3D842E064E289E6CDDA65E070E080E084
:103E500090E09AD840E363E289E6C4DA6AE070E071
:103E600080E090E091D86AE070E080E090E08CD84B
:103E700026E148E75BE06AEA87E7E5DA88E79BE066
:103E8000FC013196DC01AE17BF0730F42C91308174
:103E90003D9320833197F7CF0296FBE08E389F0742
:103EA00079F765E070E080E090E06ED8BDDA80914F
:103EB000B90C9091BA0CA091BB0CB091BC0C885776
:103EC0009C4EAF4FBF4F8093950B9093960BA09352
:103ED000970BB093980B40E461E08EE183DA41E008
:103EE00062E08EE17FDA64E670E080E090E04CD83A
:103EF0008DDB81E1BADBE82E82E1B7DB811129C0DD
:103F000040E760E08EE16EDA40E261E08EE16ADA7D
:103F100040E062E08EE166DA64E670E080E090E026
:103F200033D86AE070E080E090E02ED848E06DE29F
:103F300083E558DA4BE061E383E554DA49E06CE26B
:103F400083E550DA8091940890919508892B39F592
:103F500029C0EE20A9F258E6C52E52E0D52E60E128
:103F6000A62E62E0B62ED6016D917D918D919D9128
:103F70006D010E943A399B01AC0160E070EA84E96E
:103F800096E40E949F38F501619371938193919318
:103F90005F01F4E7CF16F2E0DF0629F7B1CF115049
:103FA00009F035CF0E9493090E949F1770939D0CD2
:103FB00060939C0C80E092E090934A0A8093490AB7
:103FC00088EC90E090939F0C80939E0C82E080930D
:103FD000D0001092D50080E18093D4008091D10070
:103FE00088698093D10068EE73E080E090E00E94E1
:103FF000C4170BE412E0C12C39E0D32E3DE3E32ECD
:10400000F12C42E0B42ED8012D913D914D915D915E
:104010008D01C701B6010E948E3BDA01C9010197EB
:10402000A109B109AC01BD017695679557954795F2
:10403000BB27A72F962F852FB092D0008093D50055
:104040004093D4008091D10088698093D1002EEFF5
:10405000822E22E0922E8114910429F0F401949191
:1040600091110C94B63590918A048091860498172A
:1040700039F06AE070E080E090E00E94C417F3CF6E
:10408000F2E00F351F0709F0BECF68EC70E080E06A
:1040900090E00E94C41782E08093D0001092D50077
:1040A00080E18093D4008091D10088698093D10011
:1040B00002E712E0BCE8FB2EF00EF801949180912B
:1040C0008A048F5F87FD80E024E0829FF001112445
:1040D000EC58FD4F928380938A048091D1008062D6
:1040E0008093D10065E070E080E090E00E94C4170A
:1040F0000F5F1F4FF012E1CF82EB8093470A809150
:104100004B0A806880934B0A81E293E0A9E08A2EF3
:10411000880E8CAE8090B90C9090BA0CA090BB0C1D
:10412000B090BC0C8091B70C9091B80C7401E81A57
:10413000F90AC701181619060CF0B3C110EE811A5E
:1041400011EB910A9092B80C8092B70C80910A0BF7
:104150008F5F833019F080930A0B02C010920A0B14
:10416000FFE5EF2EF2E0FF2E4AED5AE06AEC7AE02E
:1041700001EF1BE0DB0120E030E08FB7F894F7019E
:1041800091917F01E92FF0E0EE0FFF1FE050FE4F0D
:10419000C080D1808FBFFA01A080B18082819381DD
:1041A0008A0D9B1D0296A480B5808A0D9B1D8C0DE7
:1041B0009D1D9695879596958795ED91FC91119704
:1041C00033978E179F0728F4FC0132961196FC93C3
:1041D000EE93ED91FC9111973396E817F90720F4CF
:1041E000029711969C938E9380910A0BF901EE0F22
:1041F000FF1FE20FF31FE80FF11DEE0FFF1FE65246
:10420000F54FD182C0828091F00B882369F08150F4
:104210008093F00BF801808191818538F3E09F074E
:104220001CF011969C938E932F5F3F4F4A5F5F4F18
:1042300012960E5F1F4F2830310509F09ECF10E017
:10424000812F90E09595879595958795182FDB019F
:104250002D913D91BD012D34B4E03B0724F0106851
:104260002C3637400CF41064FAE0623D7F0741F7CA
:104270008091B60C181308C08091B50C8A3F30F4B9
:104280008F5F8093B50C02C01092B50C1093B60CE2
:104290008091D00A9091D10A8D34944054F51092B7
:1042A000B20C1092B10C1092B40C1092B30C10928C
:1042B000AD0C1092AE0C1092AF0C1092B00C10928C
:1042C000AA0C1092A90C1092AC0C1092AB0C80911D
:1042D000770A9091780A892B61F09091A00C8091D7
:1042E0004B0A992321F080FF02C0E9DB02C081FD67
:1042F000DEDB8091B50C843169F480914B0A81FF3B
:1043000010C08091770A9091780A892B19F41F3593
:1043100009F4CDDBA2EDBAE080E090E0E12CF12CD5
:1043200060C0173579F480E092E090934A0A809358
:10433000490A0E94C80A8AE090E090939F0C8093FB
:104340009E0C09C01B3639F40E949F1770939D0C78
:1043500060939C0CDFCF8091770A9091780A892B2B
:1043600021F41F3611F4ABDBD5CF173939F480E0D7
:1043700092E090939B0C80939A0CCCCF173A31F437
:1043800080914C0A816080934C0AC4CF1B3B31F46E
:104390008091750A9091760A029607C0173B59F4EE
:1043A0008091750A9091760A02979093760A80938D
:1043B000750A0C94D6351E3B31F48091730A9091A6
:1043C000740A029608C01D3B09F0A4CF8091730ABD
:1043D0009091740A02979093740A8093730A0C94D4
:1043E000D6356D917D9141E050E0653A36E0730736
:1043F00014F440E050E09C012E5F3F4F02C0440F98
:10440000551F2A95E2F701E010E06431E5E07E07F0
:1044100014F000E010E0082E02C0000F111F0A94F3
:10442000E2F7402B512B6551754021E030E06F38A9
:10443000714010F020E030E0BC016F5F7F4F02C0A0
:10444000220F331F6A95E2F7242B352BE22AF32A39
:1044500003968C30910529F627E73AE0A0EABCE004
:1044600059E05A0FF901819191919F018E219F216D
:1044700041E0892B09F440E04D935A13F3CF90911A
:10448000A10C80914B0A91110C94DD352091980C70
:104490003091990C2333310514F00C94DD350C94D4
:1044A000E93580918A0C823009F44AC330F48823BC
:1044B00059F0813009F407C153C5833009F437C579
:1044C000843009F44BC54CC581E080938A0C8091FF
:1044D0001B0B90911C0BA0911D0BB0911E0B88160D
:1044E0009906AA06BB0608F4EEC010EA810E16E88B
:1044F000911E11E0A11EB11C80921B0B90921C0B0F
:10450000A0921D0BB0921E0B81D880914C0A817035
:10451000782E03ED19E0E0E1CE2EE2E0DE2EF7E7A3
:10452000EF2EFEE0FF2ED6012D913D914D915D9134
:104530006D01F80164857585072E000C880B990BB9
:104540002FAF21963FAF21974DAF5EAF0E943A3912
:104550002FAD21963FAD21974DAD5EAD0E94983AAB
:104560000E940739D8011D967C936E931C97711099
:1045700009C0F70127813085621B730B1D967C9360
:104580006E931C970E5F1F4FF2E0EF0EF11C29E0B7
:10459000093D120741F6772009F4E2C48091170B18
:1045A0009091180BA091190BB0911A0B892B8A2BA3
:1045B0008B2B41F48092170B9092180BA092190B41
:1045C000B0921A0B8091170B9091180BA091190BB8
:1045D000B0911A0B881A990AAA0ABB0A30E8831606
:1045E00033EC930639ECA30631E0B30608F05CC067
:1045F0001F9A379A4090170B5090180B6090190B28
:1046000070901A0B80901B0B90901C0BA0901D0BB0
:10461000B0901E0B20917404E1E1FBE07BE0272EBB
:104620007BE0372E0EE71EE04FED59E048145904A9
:104630006A047B0441F4DA018D919C91918380831B
:10464000D1018D939C93DA018D919D91AD016F0104
:1046500060817181861797071CF49183808321E024
:104660007101D1016D917C911197681779071CF444
:104670008D939C9321E03296B2E02B0E311CD60133
:104680006D917C91D7018D919C91860F971F959587
:104690008795D8018D939D938D01BBE0E731FB0792
:1046A00029F6209374045CC480914C0A8E7F809319
:1046B0004C0A1092170B1092180B1092190B1092B3
:1046C0001A0B20DA4DC480918A0C8F5F80938A0C7C
:1046D0008091950B9091960BA091970BB091980BB0
:1046E00088169906AA06BB0608F42AC2E0E78E0ED1
:1046F000E7E19E1EA11CB11C8092950B9092960B37
:10470000A092970BB092980B8091940B811179C075
:104710008FEE0E94E91984EC0E94D3198091BB00AE
:1047200080938F0B84E80E94D3198091BB0014E919
:104730001093BC0080938E0B44EF64EF87E70E94D8
:10474000F2198EEE0E94E91986EF8093BB0084E88F
:104750000E94D3191093BC0081E08093940BE091E8
:10476000730B21E02E0F253109F420E08091740BAA
:104770009091750BA091760BB091770B14E0E19FAF
:10478000F0011124E15EF44F80839183A283B3830F
:104790004091AB0B5091AC0B6091AD0B7091AE0B97
:1047A000840F951FA61FB71F34E0239FF00111242B
:1047B000E15EF44F4081518162817381841B950BCE
:1047C000A60BB70B8093AB0B9093AC0BA093AD0BE8
:1047D000B093AE0B2093730B8091950B9091960B39
:1047E000A091970BB091980B885F9D4AAF4FBF4F38
:1047F0008093950B9093960BA093970BB093980B87
:10480000AFC38FEE0E94E91984EC0E94D319809106
:10481000BB008093920B84EC0E94D3198091BB0063
:104820008093910B84E80E94D3198091BB0094E996
:104830009093BC008093900B0E94141A20918E0BD1
:1048400030918F0BA90160E070E08091820B909114
:10485000830B9A01AB01281B390B41095109A09127
:10486000800BB091810B0E94E93B6B017C013FE022
:10487000F594E794D794C7943A95D1F760918A0B51
:1048800070918B0BCB01770FAA0BBB0BBC01CD0139
:104890004BE0660F771F881F991F4A95D1F720912B
:1048A0008C0B30918D0B8901330F220B330BA90137
:1048B00098012C0D3D1D4E1D5F1D0E94B03BC20E88
:1048C000D31EE41EF51EAAE0B0E0A70196010E94E7
:1048D000E93BDC01CB010896A11DB11D54E0B59563
:1048E000A795979587955A95D1F79093A60B8093A6
:1048F000A50B40EAC41A4FE0D40AE108F108A70169
:104900009601C701B6010E946C3B4B015C016CE053
:10491000B594A794979487946A95D1F78B8E9C8EC3
:10492000AD8EBE8E8090780B9090790BA0917C0B11
:10493000B0917D0B0E94F33B2B013C017DE075940F
:104940006794579447947A95D1F7A091840BB091CE
:10495000850B2B8D3C8D4D8D5E8D0E94F33BBB27CF
:1049600097FDB095AB2F840D951DA61DB71D029622
:10497000A11DB11DF2E0B595A79597958795FA957C
:10498000D1F79C01AD0130584F4F5F4FA0917E0B86
:10499000B0917F0B0E94E93B2B013C01AFE0769484
:1049A000679457944794AA95D1F78091900B909172
:1049B000910BA091920BB091930B9C01AD01B5E0CE
:1049C0005695479537952795BA95D1F72F8B388F00
:1049D000498F5A8F092C000CAA08BB0812E0880CDA
:1049E000991CAA1CBB1C1A95D1F7A091860BB091FB
:1049F000870B2B8D3C8D4D8D5E8D0E94F33B9B0173
:104A0000AC010BE055954795379527950A95D1F759
:104A10002B8F3C8F4D8F5E8FA0917A0BB0917B0BCB
:104A2000A70196010E94F33BDC01CB012BE0B59579
:104A3000A795979587952A95D1F74B8D5C8D6D8DB0
:104A40007E8D840F951FA61FB71F880D991DAA1D67
:104A5000BB1D33E0880F991FAA1FBB1F3A95D1F7E2
:104A6000BC01CD016E5F7F4F8F4F9F4F24E030E040
:104A700040E050E00E94B03B8F88988CA98CBA8CA3
:104A8000821A930AA40AB50AA5019401AAE6B8E11C
:104A90000E94E93B97FD0BC0660F771F881F991F87
:104AA000A30192010E948E3B69017A010AC0A30111
:104AB00092010E948E3B69017A01CC0CDD1CEE1C38
:104AC000FF1C9927F7FC9A958F2D7E2D6D2D9B014C
:104AD000AC010E946C3B9B01AC01AEEDBBE00E94BF
:104AE000E93B4C01BB2497FCB094AB2CA3E4B3EEA0
:104AF000A70196010E94F53BBB2797FDB095AB2F10
:104B0000880E991EAA1EBB1E1FEC810E1EE0911E70
:104B1000A11CB11C14E0B594A794979487941A959E
:104B2000D1F7C80CD91CEA1CFB1CC092740BD092A4
:104B3000750BE092760BF092770B1092940B10C2EB
:104B400080918A0C8F5F80938A0C0E949F1720911E
:104B5000AF0B3091B00B7B01E21AF30A28EAE216A0
:104B600021E6F20608F4E3C17093B00B6093AF0B3B
:104B700000919E0C10919F0C01151105C1F16091DF
:104B8000AB0B7091AC0B8091AD0B9091AE0B0E9472
:104B90003A390E94583A6093A70B7093A80B809300
:104BA000A90B9093AA0B6091A50B7091A60BCB015A
:104BB000770FAA0BBB0BBC01CD016D5475498F4F0C
:104BC0009F4F0E943A392EE83BE24AE652E40E94A7
:104BD000983A6093A10B7093A20B8093A30B9093D0
:104BE000A40B0150110910939F0C00939E0C60912F
:104BF000AB0B7091AC0B8091AD0B9091AE0B0E9402
:104C00003A390E94583A2B013C0120912D0A3091EB
:104C10002E0A40912F0A5091300AA6E0B0E00E947F
:104C2000E93B4B015C01A30192016091A70B7091DC
:104C3000A80B8091A90B9091AA0B0E94D1372091CB
:104C4000A10B3091A20B4091A30B5091A40B0E9499
:104C5000983A0E940739DC01CB01880D991DAA1DE5
:104C6000BB1D4C015D01E3E0B594A7949794879434
:104C7000EA95D1F780922D0A90922E0AA0922F0ADF
:104C8000B092300A8091290A90912A0AA0912B0AA9
:104C9000B0912C0A88199909AA09BB09843D3EEFF5
:104CA00093073FEFA307B3076CF08C019D018D3292
:104CB0009140A105B10524F00CE211E020E030E0C4
:104CC000980102C024ED3EEFA901475F5F4F4331D9
:104CD000510560F0121613061CF42A50310908C061
:104CE0002115310529F0265F3F4F02C020E030E05A
:104CF0004091570A429F6001439FD00C1124F60156
:104D0000EE0FEF2FEE1FFF0BE739F10514F0E6E988
:104D1000F0E0EA365FEFF50714F4EAE6FFEFA09162
:104D2000580AA29FA001A39F500D11249A0166E08A
:104D3000359527956A95E1F740918C0C50918D0C33
:104D4000240F351F213365E7360714F020E335E7DC
:104D5000203D7AE8370714F420ED3AE830938D0CC3
:104D600020938C0C232F330F330B25956F01C20E2C
:104D7000D31ED092280AC092270A2091BF0B3091EF
:104D8000C00BA901495F5F4F4F30510528F41092C5
:104D9000C00B1092BF0B0CC0121613061CF4285047
:104DA000310902C0285F3F4F3093C00B2093BF0BE7
:104DB00020919D0B30919E0BC401821B930B68E2E6
:104DC00070E00E94800800912D0A10912E0A209117
:104DD0002F0A3091300A00939D0B10939E0B209365
:104DE0009F0B3093A00B6D3281E0780714F06CE2DA
:104DF00071E08B01643D7E4F14F404ED1EEFC80199
:104E00000996439760F0101611061CF40A50110918
:104E100008C00115110529F0065F1F4F02C000E010
:104E200010E06091BF0B7091C00B072E000C880B37
:104E3000990B0E943A3926E338E548E756E30E9489
:104E4000983A4B015C01B70180E090E00E9438394C
:104E50009B01AC01C501B4010E94983A2091990BC5
:104E600030919A0B40919B0B50919C0B0E94D23732
:104E700026EF38E24CE75FE30E94983A4B015C0171
:104E8000B801110F880B990B0E943A392FE832ECC8
:104E900045E75CE30E94983A9B01AC01C501B4016F
:104EA0000E94D2376093990B70939A0B80939B0B5F
:104EB00090939C0B0E9407399B012C5F3F4F293038
:104EC000310528F41092320A1092310A0EC01616DB
:104ED000170624F4AB014550510903C0AB014B5FE9
:104EE0005F4F5093320A4093310A4091590A209102
:104EF000310A3091320A429FC001439F900D112424
:104F000044E0959587954A95E1F78739910514F026
:104F100086E990E08A36AFEF9A0714F48AE69FEFAD
:104F2000C81AD90AD092280AC092270A19C08091BB
:104F30008A0C8F5F80938A0C8091430C882371F0D8
:104F40001092430C80914C0A84FF0AC080911E0A83
:104F5000853030F00E94220D811102C010928A0C1F
:104F60000E949F176093B90C7093BA0C8093BB0C8E
:104F70009093BC0C20919C0C30919D0CFB01E21B8A
:104F8000F30B9F01F093890CE093880C203F3A408B
:104F900038F370939D0C60939C0C26E04EE754E030
:104FA00062E383E50E94231A80917F0490E0982FAA
:104FB000882720917E04822B919581959109909369
:104FC000EC098093EB098091810490E0982F882769
:104FD00020918004822B9195819591099093EE09FF
:104FE0008093ED098091830490E0982F8827209189
:104FF0008204822B9093F0098093EF0980919A0CA0
:1050000090919B0C009709F451C0019790939B0CD1
:1050100080939A0CE1EBFBE020E030E08F3F11E061
:10502000910721F41082118212821382D901AD52AC
:10503000B64F5896CD90DC9059970D2C000CEE0889
:10504000FF0840815181628173814C0D5D1D6E1D91
:105050007F1D4193519361937193D901A958B14F29
:1050600019E075956795579547951A95D1F712965A
:105070005C934E9311972E5F3F4F2630310571F6AA
:10508000892BA1F480917C0E90917D0E89509140E6
:1050900090937D0E80937C0E1092740A1092730A86
:1050A0001092760A1092750A0E94821D8091EB0977
:1050B0009091EC092091780E3091790E821B930B20
:1050C0009093EC098093EB098091ED099091EE09A2
:1050D00020917A0E30917B0E821B930B9093EE09F8
:1050E0008093ED098091EF099091F00920917C0E59
:1050F00030917D0E821B930B9093F0098093EF0902
:105100000E949F176B017C018091D90B9091DA0B63
:10511000B601681B790B80E090E00E94383923EDDE
:1051200039EE47EA59E30E94983A6F8F78A389A332
:105130009AA3D092DA0BC092D90BADEC8A2EABE0D9
:105140009A2E23ED39E03C8F2B8FAE014F5F5F4FDE
:105150001A018901B3E0BB2EC12CD12C76014F8BF3
:10516000A32CD4014D905D906D907C90D301C20131
:10517000F4E0B695A79597958795FA95D1F7F8013C
:1051800091838083408D518D481B590B052E000C57
:10519000660B770B440D551D661D771DF401419379
:1051A0005193619371934F01BC010E948008C60E18
:1051B000D71EE81EF91ED80152966D917C91539727
:1051C000072E000C880B990B0E943A392F8D38A1BD
:1051D00049A15AA10E94983A0E940739F1016193AE
:1051E00071931F01BA940E5F1F4FB110BACF6F8930
:1051F0007A2D8CE192E00E9493086F897A2D81ECE0
:105200009BE00E949308CD2CDE2CEF2CFF24E7FCC2
:10521000FA94FAEECF1AD1087CE1A72E72E0B72EED
:1052200001EC1BE0E3EDEE2EE9E0FE2E412C512CCB
:10523000320121E5C216D104F8F4D7018D919C9179
:10524000F50122813381821B930B092E000CAA0BDE
:10525000BB0B56E0880F991FAA1FBB1F5A95D1F7A9
:105260004081518162817381840F951FA61FB71FF2
:1052700080839183A283B383D50112966D917C9133
:105280001397F701819191917F010E948008460E4A
:10529000571E681E791ED7011A968D919C911B97F7
:1052A000F80122813381821B930B092E000CAA0B7B
:1052B000BB0BBA2FA92F982F88274081518162817B
:1052C0007381840F951FA61FB71F81939193A1939C
:1052D000B1938F01F4E0AF0EB11C28E2A21622E0D8
:1052E000B20609F0A6CF20912602309127028091C4
:1052F0004B0A213F310514F0806801C08F778093FD
:105300004B0A80911E0290911F02BC010E948008EE
:105310006B017C018091260290912702BC010E94C2
:10532000800846015701860E971EA81EB91E8F8A57
:10533000988EA98EBA8E8091220290912302BC0190
:105340000E948008680D791D8A1D9B1D0E943A39B4
:105350008B019C013595279517950795A9EFCA2EC6
:10536000DD24DA94AFE1EA2EAFE5FA2EC01AD10AB5
:10537000E20AF30A27E336E344E35FE30E94983A44
:10538000A70196010E94983AA70196010E94983AB7
:105390009B01AC0166EF78E487ED9FE30E94D13773
:1053A0009B01AC01C701B6010E94983A6F8F78A3A8
:1053B00089A39AA300911E0210911F022091260238
:1053C00030912702032E000C440B550BB801012E1F
:1053D000000C880B990B0E9410099093220A80936D
:1053E000210A6F89788D898D9A8D0E943A394B01F7
:1053F0005C01DC01CB01B595A7959795879539EFB1
:10540000C32EDD24DA943FE1E32E3FE5F32EC81AE4
:10541000D90AEA0AFB0A27E336E344E35FE3C5015E
:10542000B4010E94983AA70196010E94983AA701F8
:1054300096010E94983A9B01AC0166EF78E487EDF3
:105440009FE30E94D1379B01AC01C701B6010E94C6
:10545000983AA50194010E94983A0E9407399B014D
:10546000AC018091220290912302BC01990F880B1C
:10547000990B0E9410099093240A8093230AA0910B
:10548000C70BB091C80B2F89388D498D5A8D0E945A
:10549000F33B6B017C01B8018091C30B9091C40B6D
:1054A0000E9480084B015C016091260270912702E6
:1054B0008091CB0B9091CC0B0E948008A5019401A8
:1054C000260F371F481F591FA0912202B0912302B7
:1054D0000E94F33BA7019601261B370B480B590B83
:1054E000CA01B9010E943A392F8D38A149A15AA1A8
:1054F0000E94983A0E9407399B01AC0160911E02FC
:1055000070911F028091CB0B9091CC0B2FAF219605
:105510003FAF21974DAF5EAF0E9480086B017C01C9
:1055200060912602709127028091C30B9091C40B69
:105530000E94800846015701861A970AA80AB90AEC
:10554000C501B4012FAD21963FAD21974DAD5EADA4
:105550000E94100920918A0A30918B0A820F931FB2
:105560006AE070E00E947B3B7093260A6093250AF4
:10557000C301B2010E943A392F8D38A149A15AA125
:105580000E94983A0E94073920914B0A21FD14C0CD
:105590004091BD0B5091BE0B9A01E3E035952795E4
:1055A000EA95E1F75A01A21AB30A9501260F371FAF
:1055B0003093BE0B2093BD0B2091BD0B3091BE0BE1
:1055C00053E0359527955A95E1F7AB01421B530BF4
:1055D0005093C00B4093BF0B0E94611A8091E50964
:1055E0009091E6099093660C8093650C8091E70991
:1055F0009091E8099093680C8093670C8091E90979
:105600009091EA0990936A0C8093690C0E949F170D
:1056100078A76FA32091D00A3091D10A2D3D15E0D3
:105620003107A4F08091700A203D47E0340754F41C
:10563000B9016C5D7540869FA001879F500D1124B4
:10564000852F869590E8992E981A02C040E8942EEE
:1056500020906E0A312C0AEC602E0AE0702E60E970
:105660007CE07CAB6BAB8EE49AE098A38F8F5C01FF
:10567000FB0140E050E08CED482E85E0582E90E88C
:10568000892ED3016D917D913D016D3DB5E07B0784
:105690002CF0603D17E071075CF007C0C201861B6B
:1056A000970B843FA1E09A0734F084EF91E003C0A8
:1056B000CB018C5D95404230510509F469C08C01E5
:1056C000000F012F001F110B1195D801AA0FBB1F4E
:1056D000A754B64FED90FC90F88EEF8A7801EE0C4F
:1056E000FF1CD701A554B64FED90FC90AF89B88D43
:1056F000EA1AFB0A1695102F0027179507956C01DB
:10570000C01AD10AEC9C8001ED9C100DFC9C100D80
:105710001124000F012F001F110B11950A0F1B1FE1
:1057200011830083829DD001839DB00D929DB00DA9
:1057300011248B2F8695B82DB81BB99DC00111245B
:10574000880F892F881F990B9195D501FC90F89EA1
:105750008001F99E100D1124000F012F001F110B65
:105760001195DA01A158B34F0C93D50112961C91F3
:10577000189FD001199FB00D1124CD01880F892FDA
:10578000881F990B9195DA01AF58B34F8C9302C0E3
:10579000918380836C3D75403CF48081918191952B
:1057A00081959109918380834F5F5F4F329613E01B
:1057B000A10EB11C4330510509F063CF2C3444E0F5
:1057C00034073CF0213D57E035072CF020ED37E061
:1057D00002C02CE434E02C543440AFEFB9E00E9416
:1057E000D43B24E833E040E050E00E948E3B832F1E
:1057F0009927FC01EE0FFF1FED55F64F6081718177
:10580000FC01EE0FFF1FEB55F64F0190F081E02DEC
:10581000E61BF70B982F88278901081B190BE09FBF
:10582000C001E19F900DF09F900D1124892F9927C1
:10583000680F791F7093970C6093960C80915E0CA3
:105840008F5F80935E0C80919A0C90919B0C892BBA
:1058500031F48091490A90914A0A892B19F01F9AD4
:10586000379A0CC080914B0A82FF02C02F9847984C
:1058700080914B0A81FF02C02F9A479A4091B90C40
:105880005091BA0C6091BB0C7091BC0C80915A0C79
:1058900090915B0CA0915C0CB0915D0C8417950706
:1058A000A607B70708F580914B0A87FD1AC08B7FC2
:1058B00080934B0A1F9A379A8091B90C9091BA0C39
:1058C000A091BB0CB091BC0C80569947AE4FBF4F16
:1058D00080935A0C90935B0CA0935C0CB0935D0C7E
:1058E00003C0846080934B0A0E949F171B012C0108
:1058F000B0E56B2EBCE07B2E6CE47CE0788F6F8B88
:105900001EE9C12E19E0D12E08E4A02E0CE0B02E25
:1059100086E9882E89E0982EE12CF12CE092A209EC
:10592000F701E457FB4F8081D701A552B44F9C91FA
:10593000891B970128573B4F3AA729A7A7014C5726
:105940005B4F5CA74BA7BCA3ABA3F8ABEFA7B7011A
:105950006656764F7AAB69AB0FEF080F882309F4D0
:10596000FCC3A9A5BAA58C91EBA5FCA59081891BC8
:105970008F778F34B8F04091B90C5091BA0C609188
:10598000BB0C7091BC0C8091560C9091570CA0915F
:10599000580CB091590C84179507A607B70708F45F
:1059A000F7C331C4ABA1BCA18C91F701B4E08B9FCC
:1059B000E00DF11D1124E057FB4F1081EFA5F8A970
:1059C0009081981721F08F5FABA1BCA18C93F3015C
:1059D0008081811104C081E0143259F486C2813083
:1059E00019F41D3431F47BC2823029F41C3309F4DC
:1059F00078C280E07AC2833079F4113408F0ABC306
:105A0000AF89B88D1C93F6011083D5011C92E9A9CA
:105A1000FAA9108284E069C2843041F4D4011C9355
:105A2000F60180818127808385E05FC2853009F09F
:105A30005CC2D5019C91EF89F88D2081D601921727
:105A400088F42C9121272C9321E0290FF501208344
:105A5000F70124E0929FE00DF11D1124EA56F74F63
:105A6000108343C28C9181133EC2F401808185373B
:105A700009F4E9C108F057C08C3609F4D4C1C0F567
:105A8000873609F43AC1B8F4853609F4F2C008F053
:105A900030C1843609F01CC281EF898383E08A8398
:105AA0001B8220E030E040E050E72C833D834E83B2
:105AB0005F8367E0B5C1893609F440C108F42BC1A2
:105AC0008A3609F47AC18B3609F002C280919208B5
:105AD000909193089A83898380919008909191087E
